{
  "_format": "hh-sol-artifact-1",
  "contractName": "DiceGame",
  "sourceName": "contracts/DiceGame.sol",
  "abi": [
    {
      "inputs": [
        {
          "internalType": "address",
          "name": "_tokenAddress",
          "type": "address"
        }
      ],
      "stateMutability": "nonpayable",
      "type": "constructor"
    },
    {
      "anonymous": false,
      "inputs": [
        {
          "components": [
            {
              "internalType": "uint256",
              "name": "value",
              "type": "uint256"
            },
            {
              "internalType": "uint256",
              "name": "time",
              "type": "uint256"
            },
            {
              "internalType": "address",
              "name": "from",
              "type": "address"
            }
          ],
          "indexed": false,
          "internalType": "struct DiceGame.Prediction",
          "name": "",
          "type": "tuple"
        }
      ],
      "name": "NewPrediction",
      "type": "event"
    },
    {
      "anonymous": false,
      "inputs": [],
      "name": "Published",
      "type": "event"
    },
    {
      "anonymous": false,
      "inputs": [],
      "name": "ResetAll",
      "type": "event"
    },
    {
      "inputs": [
        {
          "internalType": "bytes",
          "name": "",
          "type": "bytes"
        }
      ],
      "name": "checkUpkeep",
      "outputs": [
        {
          "internalType": "bool",
          "name": "upkeepNeeded",
          "type": "bool"
        },
        {
          "internalType": "bytes",
          "name": "",
          "type": "bytes"
        }
      ],
      "stateMutability": "view",
      "type": "function"
    },
    {
      "inputs": [
        {
          "internalType": "bytes",
          "name": "",
          "type": "bytes"
        }
      ],
      "name": "performUpkeep",
      "outputs": [],
      "stateMutability": "nonpayable",
      "type": "function"
    },
    {
      "inputs": [
        {
          "internalType": "uint256",
          "name": "_value",
          "type": "uint256"
        }
      ],
      "name": "predict",
      "outputs": [],
      "stateMutability": "nonpayable",
      "type": "function"
    },
    {
      "inputs": [
        {
          "internalType": "uint256",
          "name": "",
          "type": "uint256"
        }
      ],
      "name": "predictions",
      "outputs": [
        {
          "internalType": "uint256",
          "name": "value",
          "type": "uint256"
        },
        {
          "internalType": "uint256",
          "name": "time",
          "type": "uint256"
        },
        {
          "internalType": "address",
          "name": "from",
          "type": "address"
        }
      ],
      "stateMutability": "view",
      "type": "function"
    },
    {
      "inputs": [],
      "name": "result",
      "outputs": [
        {
          "internalType": "uint8",
          "name": "count",
          "type": "uint8"
        },
        {
          "internalType": "uint256",
          "name": "diceResult",
          "type": "uint256"
        },
        {
          "internalType": "uint256",
          "name": "standby",
          "type": "uint256"
        }
      ],
      "stateMutability": "view",
      "type": "function"
    }
  ],
  "bytecode": "0x60806040523480156200001157600080fd5b506040516200144538038062001445833981810160405281019062000037919062000095565b806000806101000a81548173ffffffffffffffffffffffffffffffffffffffff021916908373ffffffffffffffffffffffffffffffffffffffff160217905550506200011a565b6000815190506200008f8162000100565b92915050565b600060208284031215620000ae57620000ad620000fb565b5b6000620000be848285016200007e565b91505092915050565b6000620000d482620000db565b9050919050565b600073ffffffffffffffffffffffffffffffffffffffff82169050919050565b600080fd5b6200010b81620000c7565b81146200011757600080fd5b50565b61131b806200012a6000396000f3fe608060405234801561001057600080fd5b50600436106100565760003560e01c80624fbbb01461005b5780634585e33b1461008d57806352ef348a146100a957806365372147146100c55780636e04ff0d146100e5575b600080fd5b61007560048036038101906100709190610d54565b610116565b60405161008493929190610f62565b60405180910390f35b6100a760048036038101906100a29190610d07565b610166565b005b6100c360048036038101906100be9190610d54565b61023c565b005b6100cd61047c565b6040516100dc93929190610f99565b60405180910390f35b6100ff60048036038101906100fa9190610d07565b6104a1565b60405161010d929190610ef7565b60405180910390f35b6004816006811061012657600080fd5b600302016000915090508060000154908060010154908060020160009054906101000a900473ffffffffffffffffffffffffffffffffffffffff16905083565b6000600180015414801561018f57506006600160000160009054906101000a900460ff1660ff16145b15610211576001600644426101a49190610ffd565b6101ae91906111a6565b6101b89190610ffd565b60018001819055506101cd60018001546104f7565b61012c426101db9190610ffd565b6001600201819055507fa5c49e57d43a67a13cd3aba09ccf12eaa3019b35cea872059e78db9c4a70f86c60405160405180910390a15b600060018001541415801561022a575060016002015442115b1561023857610237610b91565b5b5050565b6006600160000160009054906101000a900460ff1660ff1610610294576040517f08c379a000000000000000000000000000000000000000000000000000000000815260040161028b90610f27565b60405180910390fd5b60008054906101000a900473ffffffffffffffffffffffffffffffffffffffff1673ffffffffffffffffffffffffffffffffffffffff166323b872dd333060016040518463ffffffff1660e01b81526004016102f293929190610e97565b602060405180830381600087803b15801561030c57600080fd5b505af1158015610320573d6000803e3d6000fd5b505050506040513d601f19601f820116820180604052508101906103449190610cda565b50600060405180606001604052808381526020014281526020013373ffffffffffffffffffffffffffffffffffffffff168152509050806004600160000160009054906101000a900460ff1660ff16600681106103a4576103a3611235565b5b60030201600082015181600001556020820151816001015560408201518160020160006101000a81548173ffffffffffffffffffffffffffffffffffffffff021916908373ffffffffffffffffffffffffffffffffffffffff1602179055509050506001600001600081819054906101000a900460ff16809291906104289061117c565b91906101000a81548160ff021916908360ff160217905550507fc60c19323ceb0b4d5ab552f7c83d307e60191295d4642d2b490ae57b139b1b8a816040516104709190610f47565b60405180910390a15050565b60018060000160009054906101000a900460ff16908060010154908060020154905083565b60006060600060018001541480156104ce57506006600160000160009054906101000a900460ff1660ff16145b806104ee575060006001800154141580156104ed575060016002015442115b5b91509250929050565b60005b60068110156105ca57816004826006811061051857610517611235565b5b60030201600001541061057057816004826006811061053a57610539611235565b5b600302016000015461054c9190611053565b600482600681106105605761055f611235565b5b60030201600001819055506105b7565b6004816006811061058457610583611235565b5b6003020160000154826105979190611053565b600482600681106105ab576105aa611235565b5b60030201600001819055505b80806105c290611133565b9150506104fa565b5060005b6006811015610aa25760005b60018260066105e99190611053565b6105f39190611053565b811015610a8e5760046001826106099190610ffd565b6006811061061a57610619611235565b5b60030201600001546004826006811061063657610635611235565b5b600302016000015411156108145760006004826006811061065a57610659611235565b5b6003020160405180606001604052908160008201548152602001600182015481526020016002820160009054906101000a900473ffffffffffffffffffffffffffffffffffffffff1673ffffffffffffffffffffffffffffffffffffffff1673ffffffffffffffffffffffffffffffffffffffff1681525050905060046001836106e49190610ffd565b600681106106f5576106f4611235565b5b600302016004836006811061070d5761070c611235565b5b6003020160008201548160000155600182015481600101556002820160009054906101000a900473ffffffffffffffffffffffffffffffffffffffff168160020160006101000a81548173ffffffffffffffffffffffffffffffffffffffff021916908373ffffffffffffffffffffffffffffffffffffffff16021790555090505080600460018461079f9190610ffd565b600681106107b0576107af611235565b5b60030201600082015181600001556020820151816001015560408201518160020160006101000a81548173ffffffffffffffffffffffffffffffffffffffff021916908373ffffffffffffffffffffffffffffffffffffffff160217905550905050505b60046001826108239190610ffd565b6006811061083457610833611235565b5b6003020160000154600482600681106108505761084f611235565b5b60030201600001541480156108a65750600460018261086f9190610ffd565b600681106108805761087f611235565b5b60030201600101546004826006811061089c5761089b611235565b5b6003020160010154115b15610a7b576000600482600681106108c1576108c0611235565b5b6003020160405180606001604052908160008201548152602001600182015481526020016002820160009054906101000a900473ffffffffffffffffffffffffffffffffffffffff1673ffffffffffffffffffffffffffffffffffffffff1673ffffffffffffffffffffffffffffffffffffffff16815250509050600460018361094b9190610ffd565b6006811061095c5761095b611235565b5b600302016004836006811061097457610973611235565b5b6003020160008201548160000155600182015481600101556002820160009054906101000a900473ffffffffffffffffffffffffffffffffffffffff168160020160006101000a81548173ffffffffffffffffffffffffffffffffffffffff021916908373ffffffffffffffffffffffffffffffffffffffff160217905550905050806004600184610a069190610ffd565b60068110610a1757610a16611235565b5b60030201600082015181600001556020820151816001015560408201518160020160006101000a81548173ffffffffffffffffffffffffffffffffffffffff021916908373ffffffffffffffffffffffffffffffffffffffff160217905550905050505b8080610a8690611133565b9150506105da565b508080610a9a90611133565b9150506105ce565b5060008054906101000a900473ffffffffffffffffffffffffffffffffffffffff1673ffffffffffffffffffffffffffffffffffffffff1663a9059cbb6004600060068110610af457610af3611235565b5b6003020160020160009054906101000a900473ffffffffffffffffffffffffffffffffffffffff1660066040518363ffffffff1660e01b8152600401610b3b929190610ece565b602060405180830381600087803b158015610b5557600080fd5b505af1158015610b69573d6000803e3d6000fd5b505050506040513d601f19601f82011682018060405250810190610b8d9190610cda565b5050565b6001600080820160006101000a81549060ff021916905560018201600090556002820160009055505060046000610bc89190610bf6565b7f85f75009cd18a9f9c08352c0a7e9bb374a30e8f45a3ca1cdb3f82a930f9717ad60405160405180910390a1565b508060066003020190610c099190610c0c565b50565b5b80821115610c565760008082016000905560018201600090556002820160006101000a81549073ffffffffffffffffffffffffffffffffffffffff021916905550600301610c0d565b5090565b600081519050610c69816112b7565b92915050565b60008083601f840112610c8557610c84611269565b5b8235905067ffffffffffffffff811115610ca257610ca1611264565b5b602083019150836001820283011115610cbe57610cbd61126e565b5b9250929050565b600081359050610cd4816112ce565b92915050565b600060208284031215610cf057610cef611278565b5b6000610cfe84828501610c5a565b91505092915050565b60008060208385031215610d1e57610d1d611278565b5b600083013567ffffffffffffffff811115610d3c57610d3b611273565b5b610d4885828601610c6f565b92509250509250929050565b600060208284031215610d6a57610d69611278565b5b6000610d7884828501610cc5565b91505092915050565b610d8a81611087565b82525050565b610d9981611087565b82525050565b610da881611099565b82525050565b6000610db982610fd0565b610dc38185610fdb565b9350610dd3818560208601611100565b610ddc8161127d565b840191505092915050565b610df0816110dc565b82525050565b610dff816110ee565b82525050565b6000610e12600e83610fec565b9150610e1d8261128e565b602082019050919050565b606082016000820151610e3e6000850182610e6a565b506020820151610e516020850182610e6a565b506040820151610e646040850182610d81565b50505050565b610e73816110c5565b82525050565b610e82816110c5565b82525050565b610e91816110cf565b82525050565b6000606082019050610eac6000830186610d90565b610eb96020830185610d90565b610ec66040830184610de7565b949350505050565b6000604082019050610ee36000830185610d90565b610ef06020830184610df6565b9392505050565b6000604082019050610f0c6000830185610d9f565b8181036020830152610f1e8184610dae565b90509392505050565b60006020820190508181036000830152610f4081610e05565b9050919050565b6000606082019050610f5c6000830184610e28565b92915050565b6000606082019050610f776000830186610e79565b610f846020830185610e79565b610f916040830184610d90565b949350505050565b6000606082019050610fae6000830186610e88565b610fbb6020830185610e79565b610fc86040830184610e79565b949350505050565b600081519050919050565b600082825260208201905092915050565b600082825260208201905092915050565b6000611008826110c5565b9150611013836110c5565b9250827fffffffffffffffffffffffffffffffffffffffffffffffffffffffffffffffff03821115611048576110476111d7565b5b828201905092915050565b600061105e826110c5565b9150611069836110c5565b92508282101561107c5761107b6111d7565b5b828203905092915050565b6000611092826110a5565b9050919050565b60008115159050919050565b600073ffffffffffffffffffffffffffffffffffffffff82169050919050565b6000819050919050565b600060ff82169050919050565b60006110e7826110c5565b9050919050565b60006110f9826110c5565b9050919050565b60005b8381101561111e578082015181840152602081019050611103565b8381111561112d576000848401525b50505050565b600061113e826110c5565b91507fffffffffffffffffffffffffffffffffffffffffffffffffffffffffffffffff821415611171576111706111d7565b5b600182019050919050565b6000611187826110cf565b915060ff82141561119b5761119a6111d7565b5b600182019050919050565b60006111b1826110c5565b91506111bc836110c5565b9250826111cc576111cb611206565b5b828206905092915050565b7f4e487b7100000000000000000000000000000000000000000000000000000000600052601160045260246000fd5b7f4e487b7100000000000000000000000000000000000000000000000000000000600052601260045260246000fd5b7f4e487b7100000000000000000000000000000000000000000000000000000000600052603260045260246000fd5b600080fd5b600080fd5b600080fd5b600080fd5b600080fd5b6000601f19601f8301169050919050565b7f43616e277420616464206d6f7265000000000000000000000000000000000000600082015250565b6112c081611099565b81146112cb57600080fd5b50565b6112d7816110c5565b81146112e257600080fd5b5056fea26469706673582212201b9527ca1d76b320694d45bc1c1e1a70225c1b2d1f23f1507f432fc8ee62b3a164736f6c63430008070033",
  "linkReferences": {},
  "deployedLinkReferences": {}
}